:1000000053C071C36CC06BC06AC069C068C067C0B0
:1000100066C065C064C063C062C048C760C05FC0DE
:100020005EC05DC05CC05BC05AC059C058C057C0FC
:1000300056C055C0040309040E035400680069004B
:100040006E0067004D000C034C0069006E006B00F1
:100050004D001201100100000008A0201041000115
:10006000010200010902220001010080FA090400D6
:100070000001030000000921010100012221000705
:100080000581030800640600FF0901A1011500268F
:10009000FF007508850195100900B20201850295DF
:1000A000830900B20201C00011241FBECFEFD4E0CB
:1000B000DEBFCDBF11E0A0E0B1E0EEE8F6E102C0A6
:1000C00005900D92A233B107D9F711E0A2E3B1E098
:1000D00001C01D92A23FB107E1F713D7D6CA90CF56
:1000E0001092B90087E08093B800089580E090E016
:1000F00007C024E02A95F1F78536910539F001967D
:100100002091BC0027FFF5CF80E0089581E008959D
:100110001F93182F84EA8093BC00E8DF8823C1F482
:100120008091B900887F883011F0803189F4109374
:10013000BB0084E88093BC00D9DF882349F4909108
:10014000B900987F983131F081E0903421F402C0F9
:1001500081E001C080E01F91089544EA34E824E979
:100160004093BC009091BC0097FFFCCF9091B900E8
:10017000987F983011F0903199F78093BB003093BD
:10018000BC009091BC0097FFFCCF9091B900987F84
:10019000903211F0983539F42093BC009091BC0056
:1001A00094FDFCCFDDCF0895B3DF089584E98093FB
:1001B000BC0080E006C094E09A95F1F7853629F0FE
:1001C0008F5F9091BC0094FDF6CF08958093BB00A3
:1001D00084E88093BC008ADF882341F49091B900C1
:1001E000987F81E0983219F480E0089581E00895C5
:1001F00084EC8093BC007ADF882321F42091BB003B
:1002000030E002C02FEF3FEFC901089584E88093EA
:10021000BC006CDF882321F42091BB0030E002C0D9
:100220002FEF3FEFC90108951092C5008CE0809335
:10023000C400E0ECF0E080818260808388E18093FC
:10024000C10008951F93182F8A3011F48DE0FADF52
:100250008091C00085FFFCCF1093C60080E090E045
:100260001F910895EF92FF920F931F93CF93DF9307
:10027000EC018091320190913301009709F094C014
:1002800004E311E08091C00087FFFCCF8091C000A3
:1002900084FD9BC08091C00083FD9AC08091C60000
:1002A0008D3011F08A3061F48AE0F8018083BE015C
:1002B000C9DF84E391E0909333018093320174C0ED
:1002C000893009F480E2982F90529F3510F0803ADF
:1002D00060F0F1E003381F0711F487E003C0F80174
:1002E00081938F01BE01AEDFCDCF823121F1833109
:1002F00030F4833009F46CC0883021F60AC08731AD
:1003000031F08F3731F0853109F0BCCF30C0780142
:100310003DC0F1E004331F0709F008F4B3CF88E0D3
:10032000BE0190DF80E2BE018DDF88E0BE018ADF82
:1003300001501040A7CF8DE0BE0184DF84E3E82E9A
:1003400081E0F82E05C0F70181917F01BE017ADFBF
:10035000E016F106C0F396CF88E0BE0173DF80E2BD
:10036000BE0170DF88E0BE016DDF01501040F1E09A
:1003700004331F0709F080F785CF88E0BE0162DFF4
:1003800080E2BE015FDF88E0BE015CDF870184E3BD
:10039000E81681E0F80609F008F474CFF7018291BD
:1003A0007F01803251F76ECFE0913201F09133013D
:1003B0002191F0933301E09332012A3021F410921D
:1003C00033011092320130E005C02EEF3FEF02C042
:1003D0002FEF3FEFC901DF91CF911F910F91FF9058
:1003E000EF9008951F93162F2091B80124FF07C0A6
:1003F0002091B90138E823272093B90103C02AE5E9
:100400002093B801212FDC01EAEBF1E08D9181937B
:1004100021501216DCF38AEB91E0612F60D11C5F52
:100420001093B8011F9108951F93CF93DF936091AC
:10043000C901635067FDC4C08091C601CCE0D0E023
:10044000C81BD109C353DE4F8091C5018D3209F01D
:10045000A5C0683009F0B2C083EC8093AD018AE595
:1004600080930001109284018881807631F0CE0162
:10047000A7D28F3F09F481C087C09A811092B6013C
:100480008981882331F41092B70126EB31E082E0B4
:100490006FC0853019F49093CA0167C0863009F0A7
:1004A0004EC08B81813041F482E590E09093C80189
:1004B0008093C70182E13FC0823041F484E690E03E
:1004C0009093C8018093C70182E235C08330F1F474
:1004D000992341F484E390E09093C8018093C7018D
:1004E00084E029C0913041F488E390E09093C80102
:1004F0008093C7018EE01FC09230E1F486E490E063
:100500009093C8018093C7018CE015C0813241F4FB
:1005100086E790E09093C8018093C70189E00BC003
:10052000823241F486E890E09093C8018093C7013D
:1005300081E201C080E090E49093840125C088307E
:1005400069F0893019F49093CC010FC08A3049F0DA
:100550008B3059F48BE48093B90107C02CEC31E067
:1005600002C026EB31E081E003C026EB31E080E001
:100570003093C8012093C70107C0988197FD8E81F1
:1005800090E89093840107C09F81992321F49E8174
:10059000981708F4892F8093010110C0809184017D
:1005A00087FF0CC0CE0109D48F3F21F48EE18093E8
:1005B000000104C0882311F0109201011092C901BA
:1005C0008091000184FF5BC0809101018F3F09F49D
:1005D00056C0182F893008F018E0811B8093010164
:1005E0008091AD0198E889278093AD011123B1F185
:1005F0008091840187FF08C08EEA91E0612FC2D10B
:10060000182F8930B0F52AC02091C7013091C80158
:10061000412F415086FF0EC050E0EA01C155DE4F28
:10062000F901AEEAB1E084918D933196AC17BD0724
:10063000D1F70CC0D90150E0CA0181559E4FEEEAB6
:10064000F1E06D916193E817F907D9F74F5F5F4FBC
:10065000420F531F5093C8014093C7018EEA91E0A7
:10066000612F3DD01C5F1C3041F08FEF8093010162
:1006700004C08FEF809301011EE11093000184E11B
:1006800099B19C7031F48150D9F71092CA0110923F
:10069000C401DF91CF911F910895E9E6F0E08081D8
:1006A00082608083E89A8BE48093B9018AE5809325
:1006B000B8010895A82FB92F80E090E041E050EAFA
:1006C00060956F5F58F42D9138EF82279795879545
:1006D00010F0842795273F5FC8F3F3CF0895EADF32
:1006E0008D939D930895CF93CFB7CF93C3954B9B95
:1006F000E9F74B9B09C04B9B07C04B9B05C04B9B2D
:1007000003C04B9B01C0A3C0DF93C091C601DD278E
:10071000C353DE4F4B9B02C0DF91EBCF2F930F9360
:100720001F9309B12FEF03FB20F94F933F9319B1AA
:100730004FEF012703FB21F93BE031C04E7F012F32
:1007400019B1216028C0102F4D7F2260000009B12F
:1007500029C04B7F2460012F000019B12BC019B1B3
:10076000477F28602AC04F7E09B120612CC04F7D91
:1007700019B120622FC04F7B09B1206432C04227DB
:1007800009B149934FEF0000102713FB20F919B16D
:100790001C70C9F1297F91F2012703FB21F909B1EE
:1007A000237F89F2315058F1102713FB22F919B138
:1007B000277E79F2012703FB23F92F7C81F209B10F
:1007C000102713FB24F92F7971F200C019B101270A
:1007D00003FB25F92F7359F200C009B1102713FB51
:1007E00026F9223040F200C019B1012703FB27F996
:1007F000243028F64F77206819B10000F9CF11E0B6
:100800001CBB002719C03B503195C31BD04011E0E1
:100810001CBB0881033CF9F00B34E9F02091C401C2
:100820001981110F1213EDCF4A81441F093641F18E
:100830000D3211F0013E29F70093CB013F914F910A
:100840001F910F912F91DF91CCB3C0FD4FCFCF916E
:10085000CFBFCF9118952091CB01222379F310912E
:10086000C901112369F534306AF13093C90120932D
:10087000C5011091C6013BE0311B3093C60122C077
:100880000091C9010130E4F40AE54F7049F4309158
:10089000000134FD19C000930001CDEAD1E018C079
:1008A0003091B80134FD10C00093B801C9EBD1E01C
:1008B0000FC02795A8F45150A9F4220F0000F9CFDA
:1008C0004AE503C042ED01C0432FC4E1D0E032E06D
:1008D0001AB11C605B9A1AB90BB120E41CE05F935B
:1008E000012756E00BB9279520F4515021F4220F2F
:1008F000F9CF012756E000003B5A0BB9D0F22795FB
:1009000028F4515029F4220F0000F9CF012756E0B6
:1009100027950BB920F4515021F4220FF9CF01276C
:1009200056E0299133230BB921F6037F1091CA01B8
:10093000110FC651D0400BB911F01093C40111E052
:100940001CBB08601AB1137F402F437F5F9100C02A
:1009500000C00BB91AB94BB971CF85B190E18927A5
:1009600085B90895009711F02C9A08952C98089550
:1009700081E01C9B80E00895009711F02D9A089566
:100980002D980895FF920F931F9300918B01162FBE
:10099000061708F4102FF0908C012F2D30E023570C
:1009A0003E4FB901412F50E04BD3F10EF0928C0134
:1009B000011B00938B01812F1F910F91FF900895D0
:1009C000FC01808180768032E1F4828191819130D6
:1009D00029F4982F91509230A0F406C0993089F4F0
:1009E000982F9150923078F480938A01813011F4DD
:1009F00080E101C083E880938B0110928C018FEF1E
:100A0000089580E0089580E00895880F81DB8130AB
:100A100021F4CCDB21E030E005C08FE6D7DBC6DB7C
:100A200020E030E0C9010895FF920F931F93162F25
:100A3000042FF22E880F6CDB813021F4B7DB21E02C
:100A400030E00BC08EE6C2DB812FC0DB802FBEDB27
:100A50008F2DBCDBABDB20E030E0C9011F910F9193
:100A6000FF9008951F93162F880F52DB813021F4D9
:100A70009DDB21E030E007C086E6A8DB812FA6DB06
:100A800095DB20E030E0C9011F910895CF92DF92FD
:100A9000EF92FF920F931F93CF93DF9381E090E04B
:100AA00061DF80918A0180938D0110928E01809187
:100AB0009E018A3D11F085E63AC000919F01F090B9
:100AC000A1018091A001C82FD0E0CF2CDD248DB7EB
:100AD0009EB708970FB6F8949EBF0FBE8DBFEDB7B7
:100AE000FEB7319682E091E0ADB7BEB712969C9307
:100AF0008E93119702831382D583C483D782C682D3
:100B0000D4D2EDB7FEB738960FB6F894FEBF0FBE3D
:100B1000EDBF013009F062C00091A2016091EE01C9
:100B20007091EF0181E48EDB07FF04C086E68093BD
:100B30008E0137C16091EE017091EF0182E482DB9A
:100B4000802F880FE5DA6091EE017091EF0181301E
:100B500021F481E290E07DD250C083E473DB10E0A9
:100B6000219706C08D559E4FDC018C912FDB1F5FB6
:100B7000812F90E08C179D07ACF36091EE0170918E
:100B8000EF0184E45FDBFF2011F1802F880F81608B
:100B90000BDB813099F00FE811E0C0E0D0E0089461
:100BA000C108D10812C0CC15DD0511F021DB01C050
:100BB0002DDB2196BFEF8F3F9B0721F488E68093C2
:100BC0008E0105C0F80181938F01CF1560F360910C
:100BD000EE017091EF018AE535DB4DC0023001F581
:100BE0008091A2011091A30187FDA0CF880F90DA18
:100BF000813019F000E021970AC087E680938E01CA
:100C00003AC08D559E4FDC018C91E0DA0F5F802F4A
:100C100090E08C179D07ACF3112309F0C2C02BC0E4
:100C2000033059F50091A201FF2009F47FCF81E044
:100C300090E098DE802F880F8160B6DA813041F035
:100C40000FE811E0C0E0D0E00894C108D1080EC060
:100C500088E680938E010CC0CC15DD0511F0C8DA52
:100C600001C0D4DAF80181938F012196CF15A0F34A
:100C700080E090E077DE9ADA94C0043041F5F0909D
:100C8000A2010091A301F7FC51CF07FD4FCF0F1533
:100C900008F44CCFCC24C0E0D0E010E00F191109CB
:100CA0000EC0EC2CEF0C8E2D880F32DA882329F43D
:100CB000FE01E357FE4FE382219678DAC3948C2D30
:100CC00090E0801791076CF3C0938F016AC00530E4
:100CD00029F48091A20190E04FDE63C0063049F410
:100CE00065DAE7EBFBE03197F1F700C00000F8D9D7
:100CF00058C0053619F48091A20154C0063621F47B
:100D000037DE80938F014DC00736B1F4A3EEB1E01A
:100D1000E2EAF1E087E001900D928150E1F78091E5
:100D2000E7018093EA011092EB016091E8016623EC
:100D3000C1F180E097DE35C0083651F4AFE8B1E08C
:100D4000E3EEF1E087E001900D928150E1F72AC0D7
:100D5000093649F402DE83EE91E061E070E047E09D
:100D600050E0D1D31EC00A3649F4F7DD83EE91E09E
:100D700061E070E047E050E0B6D313C0043639F4C8
:100D800083E180938F0186E3809390010AC00B3644
:100D900041F4E3DD80E090E065E5BED381E080933F
:100DA000850180E090E0DEDDDF91CF911F910F9112
:100DB000FF90EF90DF90CF900895FF920F931F93D5
:100DC000482F792F00918B010023F9F0162F061779
:100DD00008F4102FF0908C012F2D30E023563E4F59
:100DE000C901642F412F50E02BD1F10EF0928C01FC
:100DF000011B00938B01002309F448DE81E09091F0
:100E00008B01992319F080E001C081E01F910F91BF
:100E1000FF900895FF920F931F93162F042FF22E29
:100E2000880F76D9813021F4C1D921E030E00BC0A0
:100E300080E7CCD9812FCAD9802FC8D98F2DC6D9A8
:100E4000B5D920E030E0C9011F910F91FF900895BE
:100E50008091E301882349F1209188013091890133
:100E60008091E50190E028173907F8F01092890188
:100E70001092880180E06091E40140E02091EA0155
:100E8000C9DF6BDD8091EA019091EB0101969093AF
:100E9000EB018093EA012091E60130E0821793078D
:100EA00021F41092EB011092EA0108951F920F9223
:100EB0000FB60F9211248F939F938091860190918A
:100EC0008701019690938701809386018091860126
:100ED000909187018630910569F4109287011092F4
:100EE00086018091880190918901019690938901F2
:100EF000809388019F918F910F900FBE0F901F904C
:100F000018951F932EE088E190E00FB6F894A8950D
:100F1000809360000FBE2093600084B1806384B929
:100F200088B1806388B980E090E01CDDD9D881E089
:100F300090E022DD10E011DDA8958FE295E70197A2
:100F4000F1F700C00000AFE2B5E71197F1F700C07C
:100F500000001F5F143079F783EE91E061E070E0EC
:100F600047E050E0C0D280E050DD80E060E040E04B
:100F700020E05ADD6091E801662311F080E072DD27
:100F800053D984E291E09093ED018093EC0190932A
:100F9000EF018093EE0183E191E099D07EDB539ADB
:100FA00081E090E0DFDC8FEB94EDA1E08150904098
:100FB000A040E1F700C0000080E090E0D3DC8FEBC0
:100FC00094EDA1E081509040A040E1F700C0000006
:100FD00081E090E0C7DC8FEB94EDA1E08150904080
:100FE000A040E1F700C0000080E090E0BBDC8FEBA8
:100FF00094EDA1E081509040A040E1F700C00000D6
:10100000539880918100816080938100B09A809193
:101010006F00816080936F007894A89505DA18DFDF
:10102000809185018823C9F310E0FED9AFE2B5E7CE
:101030001197F1F700C000001F5F183CB1F7EDCF2A
:10104000FB01DC0102C001900D9241505040D8F7E5
:1010500008950F931F93CF93DF938C01EB018B8146
:1010600081FF1BC082FF0DC02E813F818C819D813D
:101070002817390764F4E881F9810193F983E8833B
:1010800006C0E885F985802F0995009731F48E8197
:101090009F8101969F838E8302C00FEF1FEFC801CF
:1010A000DF91CF911F910F910895A0E0B0E0EAE5A4
:1010B000F8E0C4C2FE013596619171918091EE0114
:1010C0009091EF01AF0137D02096E2E0D3C2EF92CA
:1010D000FF920F931F93CF93DF938C01E091EE016A
:1010E000F091EF01838181FF1FC0C0E0D0E00AC012
:1010F000DB011896ED91FC9119970995009711F075
:10110000CFEFDFEFF80181918F016091EE017091D7
:10111000EF01882369F7DB011896ED91FC9119978F
:101120008AE00995009711F0CFEFDFEFCE01CDB740
:10113000DEB7E6E09BC2ACE0B0E0E0EAF8E06EC209
:101140006C011B018A01FC0117821682838181FFD9
:10115000C4C12E010894411C511CF6019381F10178
:1011600093FD859193FF81911F01882309F4B1C1FB
:10117000853239F493FD859193FF81911F0185326A
:1011800021F490E0B60165DFE8CFEE24FF2420E0F3
:101190002032B0F48B3269F08C3228F4803251F076
:1011A000833271F40BC08D3239F0803349F4216001
:1011B0002CC02260246029C0286027C0206125C07F
:1011C00027FD2CC0382F30533A3098F426FF08C042
:1011D0008E2D880FE82EEE0CEE0CE80EE30E15C0F7
:1011E0008F2D880FF82EFF0CFF0CF80EF30E2062E7
:1011F0000CC08E3221F426FD6CC1206406C08C36F2
:1012000011F4206802C0883649F4F10193FD8591FC
:1012100093FF81911F01882309F0BACF982F95542D
:10122000933018F09052933028F40C5F1F4FFFE377
:10123000F9830DC0833631F0833771F0833509F0BF
:101240005CC021C0F801808189830E5F1F4F42017D
:1012500071E0A72EB12C15C062E0662E712C600ED5
:10126000711EF8018080918026FF03C06E2D70E012
:1012700002C06FEF7FEFC4012C8767D15C0183014F
:101280002C852F7716C052E0652E712C600E711ED2
:10129000F8018080918026FF03C06E2D70E002C0AF
:1012A0006FEF7FEFC4012C8745D15C012C8520684E
:1012B000830123FD1EC007C080E290E0B6012C87A9
:1012C000C8DEFA942C858F2D90E0A816B906A0F3FD
:1012D00010C0F40127FD859127FF81914F0190E017
:1012E000B6012C87B6DE2C85F110FA940894A1087B
:1012F000B108A114B10469F7E9C0843611F0893648
:1013000041F527FF08C0F8016081718182819381D6
:101310000C5F1F4F09C0F80160817181882777FD3C
:101320008095982F0E5F1F4F4FE6B42EB22297FF85
:1013300009C090958095709561957F4F8F4F9F4F15
:10134000F0E8BF2AA2012AE030E00AD1782E741812
:1013500044C0853731F43FEEB32EB2222AE030E0AC
:1013600025C099EFB92EB2228F36C1F0803720F414
:10137000883509F0AEC00DC0803721F0883709F0FC
:10138000A8C002C020E1B22AB4FE0BC084E0B82A93
:1013900008C0B4FE09C0E6E0BE2A06C028E030E07E
:1013A00005C020E130E002C020E132E0B7FE08C015
:1013B000F80160817181828193810C5F1F4F07C0AA
:1013C000F8016081718180E090E00E5F1F4FA20103
:1013D000C7D0782E7418FFE7BF22B6FE0BC02EEFE1
:1013E000B2227E1438F4B4FE07C0B2FC05C08FEE02
:1013F000B82202C0A72C01C0AE2C8B2D90E0B4FE09
:101400000DC0FE01E70DF11D2081203319F4E9EE36
:10141000BE2209C0A394B2FE06C004C086789070B4
:10142000009709F0A3948B2C9924B3FC13C0B0FE51
:101430000EC0AF1428F4E72CEF0CEA18AF2C07C04D
:10144000E72C05C080E290E0B60103DEA394AF1460
:10145000C8F304C0AF1410F4FA1801C0FF2484FECE
:101460000EC080E390E0B601F4DD82FE1DC081FE77
:1014700003C088E590E010C088E790E00DC0C4018B
:1014800086789070009781F081FC02C080E201C0F4
:101490008BE2B7FC8DE290E0B601DBDD05C080E3B6
:1014A00090E0B601D6DDEA947E14C8F37A94F20196
:1014B000E70DF11D808190E0B601CBDD7720B1F71B
:1014C00005C080E290E0B601C4DDFA94FF20C9F7C0
:1014D00044CEF6012681378102C02FEF3FEFC901CC
:1014E0002C96E2E1B7C0DC01CB01FC01F999FECFFB
:1014F00006C0F2BDE1BDF89A319600B40D9241509C
:101500005040B8F70895DC01CB0102C02D9105D001
:1015100041505040D8F70895262FF999FECF1FBAB1
:1015200092BD81BD20BD0FB6F894FA9AF99A0FBE0C
:1015300001960895FC010590615070400110D8F7A4
:10154000809590958E0F9F1F0895FC01615070400B
:1015500001900110D8F7809590958E0F9F1F0895E8
:10156000FA01AA27283051F1203181F1E8946F93D4
:101570006E7F6E5F7F4F8F4F9F4FAF4FB1E03ED07A
:10158000B4E03CD0670F781F891F9A1FA11D680F18
:10159000791F8A1F911DA11D6A0F711D811D911D4B
:1015A000A11D20D009F468943F912AE0269F1124C0
:1015B0003019305D3193DEF6CF010895462F477024
:1015C000405D4193B3E00FD0C9F7F6CF462F4F707F
:1015D000405D4A3318F0495D31FD4052419302D0DD
:1015E000A9F7EACFB4E0A695979587957795679583
:1015F000BA95C9F700976105710508959B01AC0183
:101600000A2E06945795479537952795BA95C9F7A9
:10161000620F731F841F951FA01D08952F923F9284
:101620004F925F926F927F928F929F92AF92BF92F2
:10163000CF92DF92EF92FF920F931F93CF93DF939E
:10164000CDB7DEB7CA1BDB0B0FB6F894DEBF0FBEFB
:10165000CDBF09942A88398848885F846E847D8448
:101660008C849B84AA84B984C884DF80EE80FD804A
:101670000C811B81AA81B981CE0FD11D0FB6F894C0
:0E168000DEBF0FBECDBFED010895F894FFCF81
:10168E005AFF0A633A256420733A256420723A257C
:10169E006420006C696E6B6D206465627567206DE9
:1016AE006F6465000000000300000000220132019B
:0216BE0000002A
:00000001FF
